:100000000C9434000C9451000C9451000C94510049
:100010000C9432010C9451000C9451000C9451003A
:100020000C9451000C9451000C9451000C9451000C
:100030000C9451000C9451000C9451000C945100FC
:100040000C9451000C9451000C9451000C945100EC
:100050000C9451000C9451000C9451000C945100DC
:100060000C9451000C94510011241FBECFEFD8E026
:10007000DEBFCDBF11E0A0E0B1E0E0EEF4E002C0F1
:1000800005900D92A231B107D9F721E0A2E1B1E0CC
:1000900001C01D92A931B207E1F70E94FC000C9447
:1000A0006E020C9400001092B90088E98093B800A9
:1000B000089594EA9093BC00ECEBF0E090819923D2
:1000C000ECF78093BB0084E88093BC00ECEBF0E09D
:1000D00080818823ECF79091B900987F81E0983176
:1000E00009F080E008950E94590008958093BB00B4
:1000F00084E88093BC00ECEBF0E080818823ECF78F
:100100009091B900987F81E0983209F480E00895D9
:10011000CF93DF93D62FC42F0E9459008D2F0E94BA
:1001200076008C2F0E94760084E98093BC00DF91DA
:10013000CF91089584EC8093BC00ECEBF0E08081DB
:100140008823ECF78091BB000895CF93DF93C82FED
:10015000D62F0E9459008D2F0E94760081E08C0FCF
:100160000E9459000E949A0094E99093BC00DF918C
:10017000CF910895CF93DF9391E093B913B8C82F2F
:10018000D0E0CE010E945D0213B882E083B9CE01B7
:100190000E945D0213B8DF91CF91089587B1837FEC
:1001A00087B988B1876088B9E8E6F0E0808182602D
:1001B0008083ECE6F0E080818460808380818860C9
:1001C0008083209A219A399A51983A988BB1866007
:1001D0008BB978940895EF920F930E9453000E9478
:1001E0008701E12C09E12CE041E162E081E00E941D
:1001F000C8010F91EF9008950E94CE000E94EB007D
:10020000C1E028E131E046E151E065E171E087E1DC
:1002100091E00E9494012091180140911601609193
:100220001501809117010E943002809114018823EA
:1002300059F09091150180911201981305C0C09357
:1002400013011092140104C0809113018823C9F294
:1002500080911501883211F41092130184E60E94F6
:10026000BA00CFCF1F920F920FB60F9211242F9387
:100270003F934F935F936F937F938F939F93AF932E
:10028000BF93CF93EF93FF93C6B180910001C8272E
:1002900086B18093000128E131E046E151E065E15B
:1002A00071E087E191E00E949401C2FF07C081E004
:1002B00090911301911180E080931301C3FF15C049
:1002C00081E08093140190911301911180E080935B
:1002D0001301809115019AE0980F9C3318F49093C4
:1002E000120103C0825380931201FF91EF91CF91CD
:1002F000BF91AF919F918F917F916F915F914F913E
:100300003F912F910F900FBE0F901F90189580ED89
:100310000E94730087E00E94760080E00E947600D1
:1003200084E98093BC000895CF92DF92EF92FF9210
:100330000F931F93CF93DF93EC016B017A01890137
:1003400062E081ED0E94A500888361E081ED0E945A
:10035000A500F601808360E081ED0E94A500F70111
:10036000808363E081ED0E94A500F801808388818D
:1003700086FF03C08F71888302C08F738883DF91EB
:10038000CF911F910F91FF90EF90DF90CF90089544
:10039000EF920F931F93CF93DF93162FD42FC22F7B
:1003A000482F65E080ED0E948800412F64E080EDD9
:1003B0000E9488004D2F66E080ED0E9488004C2F3F
:1003C00062E080ED0E948800402F61E080ED0E9495
:1003D00088004E2D60E080ED0E948800DF91CF9173
:1003E0001F910F91EF900895853048F4823008F006
:1003F0008F5F880F462F682F80EE0E948800089537
:10040000613138F4E62FF0E0EF5FFE4F60810E942B
:10041000F4010895482F440F64E080EE0E948800A4
:1004200008950F931F93CF93DF93162FD42FC22FCE
:10043000682F80E00E940002612F81E00E9400028C
:100440006D2F82E00E9400026C2F83E00E94000268
:10045000802F0E940A02DF91CF911F910F91089582
:100460000F93CF93DF9300D000D0CDB7DEB7898351
:100470006A834B832C839E012C5F3F4FAE014D5FFF
:100480005F4FBE016E5F7F4FCE0101960E949401C7
:100490004A818981242F2F7042954F70682F6F7089
:1004A00001E082958F700E9411020F900F900F90C3
:1004B0000F90DF91CF910F910895181619066CF4E3
:1004C00020E030E0EFE9FFE03197F1F700C00000F5
:1004D0002F5F3F4F82179307A9F70895F894FFCF36
:1004E000FF3F065B4F666D7D077F6F777C395E79D6
:0204F000710099
:00000001FF
