S00D000046494E414C2E73726563AD
S113000019C1000035C1000033C1000031C1000036
S11300102FC100002DC100002BC1000029C1000028
S113002027C1000026C1000023C1000050C1000008
S11300301FC100001DC1000033C1000019C1000030
S113004017C1000015C1000013C1000011C1000058
S11300500FC100000DC100000BC1000009C1000068
S113006007C1000005C1000003C1000001C1000078
S1130070FFC00000FDC00000FBC00000F9C000008C
S1130080F7C00000F5C00000F3C000000664EC1BDC
S11300903C04BC163E3BE5B93CC93C37C29E5A3DC4
S11300A0660498083EEA69AAAA3E000000803F0759
S11300B0634236B79BD8A71A39685618AEBAAB55FF
S11300C08C1D3CB7CC5763BD6DEDFD753EF61772C4
S11300D031BF000000803F08000000BE9224491296
S11300E03EABAAAA2ABECDCCCC4C3E00000080BEBA
S11300F0ABAAAAAA3E00000000BF000000803F0097
S113010000000000084178D3BB4387D1133D190E8A
S11301103CC3BD4282AD2B3E68EC8276BED98FE1F2
S1130120A93E4C80EFFFBE01C4FF7F3F00000000EA
S113013000006E616E00696E660000407A10F35A2A
S113014000A0724E18090010A5D4E80000E8764813
S1130150170000E40B54020000CA9A3B000000E1BF
S1130160F505000080969800000040420F00000052
S1130170A08601000000102700000000E803000032
S113018000006400000000000A00000000000100FC
S1130190000000002C76D888DC674F0823DFC1DF1D
S11301A0AE59E1B1B796E5E3E453C63AE651997620
S11301B096E8E6C28426EB898C9B62ED407C6FFC5A
S11301C0EFBC9C9F40F2BAA56FA5F490055A2AF79C
S11301D05C936B6CF9676DC11BFCE0E40D47FEF5A5
S11301E020E6B500D0ED902E03009435770500800D
S11301F0841E080000204E0A000000C80C3333336C
S1130200330F986E12831141EF8D2114893BE6550B
S113021016CFFEE6DB18D1844B381BF77C1D901DEE
S1130220A4BBE424203284725E228100C9F124EC50
S1130230A1E53D2711241FBECFEFD0E1DEBFCDBF26
S113024014E0A0E0B1E0E8E2FCE200E00BBF02C091
S113025007900D92AE35B107D9F72CE0AEE5B4E0C6
S113026001C01D92A53CB207E1F70FD60C941216FB
S1130270C7CE1F920F920FB60F9211248F939F93A4
S11302808091BD0C9091BE0C01969093BE0C80930E
S1130290BD0C9F918F910F900FBE0F901F901895DA
S11302A01F920F920FB60F9211248F939F938091F8
S11302B05E0490915F04019690935F0480935E04C2
S11302C09F918F910F900FBE0F901F9018951F92C2
S11302D00F920FB60F9211248F939F93AF93BF93F6
S11302E08091BF0C9091C00C9093BA0C8093B90C80
S11302F080915E0490915F04909361048093600404
S113030086B597B59093C00C8093BF0C10925F0490
S113031010925E0480916004909161048091B30412
S11303209091B404A091B504B091B6048093B30441
S11303309093B404A093B504B093B60486B78062D6
S113034086BF84E88EBDBF91AF919F918F910F902E
S11303500FBE0F901F9018951092BE0C1092BD0CFA
S1130360811106C08BE085BD87B7806887BF07C051
S1130370813029F489E085BD87B7806887BF789488
S1130380089587B78F7787BF85B58F7785BD089523
S1130390CF93DF93EC018AEF83BD1092BE0C1092D1
S11303A0BD0C80E0D9DF2091BD0C3091BE0C2C1720
S11303B03D07C8F3E6DFDF91CF91089510929000D6
S11303C082E289B982E08BB988E18AB98EE08093B0
S11303D0950008955F9BFECF8CB10895FC010190B8
S11303E00020E9F73197AF01481B590B1416150685
S11303F064F4FC0120E030E05D9BFECF81918CB978
S11304002F5F3F4F42175307B9F708955D9BFECF07
S11304108CB9089587E886B982E887B90895369A31
S113042086B1873CE9F384B195B108950F931F9386
S1130430CF93DF9309EB14E0C0E0D0E0BE0188273E
S113044077FD8095982F0E947B0C20EB32E748E8DB
S11304505FEB0E946A0D20E038EA4CE656E40E9405
S1130460070D0E94480CF801619371938F01219646
S1130470C115F4E0DF0711F7DF91CF911F910F91C0
S11304800895CF92DF92EF92FF92CF93DF93C5E06E
S1130490D0E0C12CD12C7601C2DF880F991FFC015A
S11304A0E754FB4F60817181882777FD8095982FF1
S11304B00E947B0C9B01AC01C701B6010E947C0B1E
S11304C06B017C012197209739F720E030E040EA66
S11304D050E40E94E00BDF91CF91FF90EF90DF900A
S11304E0CF9008958FB58C7F8FBD82EC8EBD109216
S11304F07A0084E287BF089587B78F7D87BF8C9A7F
S1130500949A81E090E044DF949886B7806286BF35
S11305108C9887B7806287BF84EC8EBD89E190E0B8
S113052037CF0895BC01882777FD8095982F0E94C6
S11305307B0C2DEB37E346E857E30E94070D20E0E0
S113054030ED44E856E40E94070D0E94480C709375
S1130550B8046093B7040895CFDF8091BF0C9091E5
S1130560C00C2091B90C3091BA0C821B930B909360
S1130570BC0C8093BB0C8091BB0C9091BC0CD2CF73
S113058008958AE180938A008BEA80938B0080E44B
S11305909CE9909387008093860088EB9BE090937E
S11305A085008093840080E182B90895853B91059C
S11305B0E0F4BC01882777FD8095982F0E947B0C7E
S11305C020E030E044EA51E40E94070D20E030E0EE
S11305D046E154E40E947C0B0E944D0C709385000C
S11305E0609384008AE090E0D3CE0895CF92DF92A6
S11305F0EF92FF920F931F93CF93DF93CDB7DEB7A4
S1130600E2970FB6F894DEBF0FBECDBF8C01CB01CD
S11306106A0130D71C141D040CF088C1E12CF12CA4
S1130620C80180D7D8018C9181FF19C060E070E0C7
S113063080E090E01FD784E1E6E0F1E0DE0155962A
S113064001900D928A95E1F7FE01B9968AE0DF01E7
S11306501D928A95E9F7CE014596C0DE6FC180FFF1
S113066019C060E070E080E090E004D785E1E4E246
S1130670F1E0DE01559601900D928A95E1F7FE01B5
S1130680BA9689E0DF011D928A95E9F7CE01459675
S1130690A5DE54C184FF19C060E070E080E090E002
S11306A0E9D685E1E2E4F1E0DE01559601900D9290
S11306B08A95E1F7FE01BA9689E0DF011D928A95D9
S11306C0E9F7CE0145968ADE39C1F801868D978D0A
S11306D0833CF1E09F07C8F060E070E080E090E0C8
S11306E0C9D682E1E0E6F1E0DE01559601900D9273
S11306F08A95E1F7FE01B7968CE0DF011D928A9599
S1130700E9F7CE0145966ADE19C1F80120A131A1AD
S11307102732F2E03F07C8F060E070E080E090E04C
S1130720A9D683E1EEE7F1E0DE01559601900D9242
S11307308A95E1F7FE01B8968BE0DF011D928A9558
S1130740E9F7CE0145964ADEF9C0F801448D558D8E
S1130750493EF3E05F07C8F060E070E080E090E0BD
S113076089D681E1ECE9F1E0DE01559601900D9224
S11307708A95E1F7FE01B6968DE0DF011D928A9518
S1130780E9F7CE0145962ADED9C0F80162A173A12A
S1130790633CF1E07F07C8F060E070E080E090E047
S11307A069D682E1EAEBF1E0DE01559601900D9203
S11307B08A95E1F7FE01B7968CE0DF011D928A95D8
S11307C0E9F7CE0145960ADEB9C0892BC9F460E089
S11307D070E080E090E04ED685E1E8EDF1E0DE01E6
S11307E0559601900D928A95E1F7FE01BA9689E03B
S11307F0DF011D928A95E9F7CE014596EFDD9EC093
S1130800232BC9F460E070E080E090E033D686E109
S1130810E6EFF1E0DE01559601900D928A95E1F73D
S1130820FE01BB9688E0DF011D928A95E9F7CE01AF
S11308304596D4DD83C0452BC9F460E070E080E0C8
S113084090E018D685E1E4E1F2E0DE0155960190EE
S11308500D928A95E1F7FE01BA9689E0DF011D92B7
S11308608A95E9F7CE014596B9DD68C0672BC9F4CE
S113087060E070E080E090E0FDD586E1E2E3F2E044
S1130880DE01559601900D928A95E1F7FE01BB9623
S113089088E0DF011D928A95E9F7CE0145969EDD39
S11308A04DC0F80184859585E80EF91EEC14FD040D
S11308B00CF4B6CE3DC0C80135D6D8011C968D9136
S11308C09C911D97C80ED91EBFECCB16BFEFDB065B
S11308D094F760E070E080E090E0CCD5EC0CFD1C77
S11308E019821A821B821C82FE01359680E1DF0187
S11308F01D928A95E9F7C7016AE070E00E94AF1281
S11309007F936F9386ED93E09F938F938E010F5F98
S11309101F4F1F930F930E944E15C8015FDD0F9068
S11309200F900F900F900F900F9015C0E12CF12CA9
S113093060E070E080E090E09DD5D2CF60E070E0B0
S113094080E090E097D56EEC7FEF8EEC9FEF92D530
S1130950C12CD12CB0CFE2960FB6F894DEBF0FBEF7
S1130960CDBFDF91CF911F910F91FF90EF90DF905A
S1130970CF900895EF92FF920F931F93CF93DF933D
S11309808C017B0164E670E08CE99FEF73D51E1443
S11309901F04B4F4C0E0D0E085E090E0F9DCC801C5
S11309A0C1D5F80186859785C80FD91F9E01DD231F
S11309B024F4222733272C1B3D0B2E153F0564F30B
S11309C060E070E080E090E055D5DF91CF911F9119
S11309D00F91FF90EF900895EF92FF920F931F9362
S11309E0CF93DF938C017B016CE97FEF84E690E089
S11309F041D51E141F047CF4C0E0D0E085E090E0F3
S1130A00C7DCC8018FD5F80186859785C80FD91F23
S1130A10CE15DF059CF360E070E080E090E02AD51D
S1130A20DF91CF911F910F91FF90EF900895CF9395
S1130A30DF93CDB7DEB7E3970FB6F894DEBF0FBEF2
S1130A40CDBF8BE0EDEDF3E0DE01119601900D9248
S1130A508A95E1F784E1E8EEF3E0DE011C9601906B
S1130A600D928A95E1F784E1ECEFF3E0DE019096D4
S1130A7001900D928A95E1F7CE010196AFDCCE018B
S1130A800C96ACDCCE018096A9DC8AE0BFDC8DE05C
S1130A90BDDCE3960FB6F894DEBF0FBECDBFDF9189
S1130AA0CF9108952F923F924F925F926F927F92CF
S1130AB08F929F92AF92BF92CF92DF92EF92FF926A
S1130AC00F931F93CF93DF93CDB7DEB7C45BD109E8
S1130AD00FB6F894DEBF0FBECDBF00E010E0E12CEE
S1130AE0F12CC555DF4F19821882CB5AD0401E0114
S1130AF029E7220E311CC1010496CD54DF4F99839E
S1130B008883C35BD040C80151DDBBDCB62EA72E61
S1130B10982E892E21DDC090B704D090B80484E6C5
S1130B2090E036DCB601882777FD8095982FE3D6D0
S1130B302B2D3A2D492D582DDED5AAD6625E7F4F36
S1130B406D33710500F59CE3C916D104E4F4043B4C
S1130B501105C9F0C355DF4FA881B981CD5AD040E2
S1130B601296C355DF4FB983A883CD5AD040A0173E
S1130B70B10709F085C0A23BB10509F497C0BFEFE6
S1130B80EB1AFB0AA8C01E141F040CF0A4C0C55520
S1130B90DF4FE880F980CB5AD040EE0CFF1CC555DE
S1130BA0DF4FE881F981CB5AD040EE0EFF1EEE0CE8
S1130BB0FF1CEE0CFF1C21E030E02C0F3D1FE20E69
S1130BC0F31EC155DF4FE881F981CF5AD040D701D8
S1130BD01796FC93EE931697C355DF4F28813981FE
S1130BE0CD5AD04019963C932E931897B9016E1B99
S1130BF07F0B6E5F7F4F15967C936E9314978827B7
S1130C0077FD8095982F77D620E030E044EB53E4CD
S1130C10D7D520ED3FE049E450E4F9D6A7D72B011E
S1130C203C01CF54DF4FA881B981C15BD040BD01E5
S1130C30882777FD8095982F5ED69B01AC015CD503
S1130C40A3019201E4D6F7016083718382839383C5
S1130C50CF54DF4F28813981C15BD040338722874D
S1130C60C555DF4F88819981CB5AD0400196C5552F
S1130C70DF4F99838883CB5AD040E12CF12C2BC0D1
S1130C80CF54DF4FD982C882C15BD040C155DF4FFA
S1130C9019830883CF5AD040C355DF4F1983088383
S1130CA0CD5AD040EE24E394F12C15C0CF54DF4F3D
S1130CB0D982C882C15BD040C355DF4FA881B981B6
S1130CC0CD5AD040C155DF4FB983A883CF5AD04005
S1130CD0EE24E394F12CF10110821182128213822A
S1130CE0CD54DF4FA881B981C35BD040EEE21D92A1
S1130CF0EA95E9F7DF92CF928F929F92AF92BF92DB
S1130D001F930F93A0E1B4E0BF93AF933F922F9250
S1130D100E944E15C10162DB0E5F1F4F0FB6F8949F
S1130D20DEBF0FBECDBF063B110509F0ECCEC555A5
S1130D30DF4F88819981CB5AD040181619060CF0E0
S1130D4057C08E010F5F1F4FC12CD12C7E0199E734
S1130D50E90EF11C0F2EF4E27F2EF02D4701A4E0E2
S1130D608A0E911C0F2EF5E3AF2EF4E0BF2EF02D6A
S1130D70C555DF4F48805980CB5AD040F7011082C7
S1130D80118212821382D401E72D1D92EA95E9F7AC
S1130D90F80183858F9382858F938481958199232C
S1130DA00CF401969C013595279580859185821BCD
S1130DB0930B9F938F9383818F9382818F938181F0
S1130DC08F9380818F93BF92AF92FF92EF920E9494
S1130DD04E15C70103DBFFEFCF1ADF0A045F1F4F75
S1130DE00FB6F894DEBF0FBECDBFC414D50431F6E0
S1130DF0CC54DF4F0FB6F894DEBF0FBECDBFDF91EA
S1130E00CF911F910F91FF90EF90DF90CF90BF9003
S1130E10AF909F908F907F906F905F904F903F9096
S1130E202F900895CF93DF93CDB7DEB72C970FB6ED
S1130E30F894DEBF0FBECDBF86E0E0E5F2E0DE0150
S1130E40119601900D928A95E1F786E0E6E5F2E0CD
S1130E50DE01179601900D928A95E1F79E01295FB4
S1130E603F4FAE014F5F5F4F66E070E080E090E07F
S1130E7018D380E090E046D32C960FB6F894DEBFEA
S1130E800FBECDBFDF91CF9108956F927F928F9265
S1130E909F92AF92BF92CF92EF92FF921F93CF9304
S1130EA0DF93CDB7DEB764970FB6F894DEBF0FBEFD
S1130EB0CDBFB2D27C01F2D3E4D1ACDAB7DA7EDAB8
S1130EC060DB10DB0F2EFAE56F2EF4E07F2EF02DA1
S1130ED00F2EF4E1CF2EF02D0F2EF3E1AF2EF02DD7
S1130EE00F2EF2E1BF2EF02D0F2EF1E19F2EF02DEB
S1130EF06894882484F86EDA182F1F928F937F9257
S1130F006F9210D20F900F900F900F901D3609F032
S1130F107AC060DA182F8133B9F4E2E8F2E0DE0136
S1130F201196882D01900D928A95E1F7198A1A8AF3
S1130F301B8A1C8ACE01019651DA42E350E068EC28
S1130F4070E0C70153DB30C08233B1F4E6E9F2E06C
S1130F50DE011196892D01900D928A95E1F71A8A86
S1130F601B8A1C8ACE01019639DA46E950E068EC06
S1130F7070E0C7013BDB30C08333B1F4EAEAF2E04E
S1130F80DE011196892D01900D928A95E1F71A8A56
S1130F901B8A1C8ACE01019621DA4AEF50E068ECE4
S1130FA070E0C70123DB2FC01433B1F4EEEBF2E0A1
S1130FB0DE011196892D01900D928A95E1F71A8A26
S1130FC01B8A1C8ACE01019609DA44EF51E068ECD1
S1130FD070E0C7010BDB84C01533A9F4E2EDF2E045
S1130FE0DE0111968B2D01900D928A95E1F71C8AF2
S1130FF01B8ACE010196F2D948EE53E068EC70E00A
S1131000C701F4DAD5C0123709F06AC0E3D9182F42
S1131010813399F4E6EEF2E0DE0111968B2D019016
S11310200D928A95E1F71C8A1B8ACE010196D6D9C6
S11310306AE070E0C7019EDC2AC0823399F4EAEFCB
S1131040F2E0DE0111968B2D01900D928A95E1F765
S11310501C8A1B8ACE010196C1D969E170E0C701DF
S113106089DC2AC0833399F4EEE0F3E0DE011196C3
S11310708B2D01900D928A95E1F71C8A1B8ACE0173
S11310800196ACD96DE270E0C70174DC29C0143359
S113109099F4E2E2F3E0DE0111968B2D01900D92BA
S11310A08A95E1F71C8A1B8ACE01019697D96AE5D5
S11310B070E0C7015FDC7CC0153391F4E6E3F3E034
S11310C0DE0111968A2D01900D928A95E1F71C8A12
S11310D0CE01019683D964EB70E0C7014BDC7CC080
S11310E01C3609F065C076D9182F813391F4EAE4EF
S11310F0F3E0DE0111968A2D01900D928A95E1F7B5
S11311001C8ACE0101966AD96AE070E0C70164DCEA
S113111028C0823391F4EEE5F3E0DE0111968A2DC6
S113112001900D928A95E1F71C8ACE01019656D959
S113113069E170E0C70150DC28C0833391F4E2E731
S1131140F3E0DE0111968A2D01900D928A95E1F764
S11311501C8ACE01019642D96DE270E0C7013CDCE5
S113116027C0143391F4E6E8F3E0DE0111968A2DEA
S113117001900D928A95E1F71C8ACE0101962ED931
S11311806AE570E0C70128DC27C0153389F4EAE971
S1131190F3E0DE0111968C2D01900D928A95E1F712
S11311A0CE0101961BD964EB70E0C70115DCA3CE18
S11311B0133791F48CE592E011D939DC73DCEEEA53
S11311C0F3E0DE0111968C2D01900D928A95E1F7E2
S11311D0CE01019603D98FCE103709F08CCE8DE65F
S11311E092E0FCD8F7D88F7D893509F084CE83E16D
S11311F0E2ECF3E0DE01119601900D928A95E1F79D
S11312001C8ACE010196EAD80DDEC7010CD180E01C
S113121090E064960FB6F894DEBF0FBECDBFDF91A9
S1131220CF911F91FF90EF90CF90BF90AF909F9080
S11312308F907F906F900895DE9A90E0A9D8DE9801
S11312408BB3807F8BBB0895CF93C82FDC988BB36F
S11312509C2F92959F70892B8BBB82E0EDDF8BB323
S1131260CF70C82BCBBB82E0E7DFDC9ACF91089527
S113127081E0EADF81E090E08BC8089582E0E4CF6A
S113128008958FEF8ABB83E08BBBDE9A81E090E008
S11312907FD8DE9885E090E07BD8DE9A81E090E00C
S11312A077D8DE98DE9A81E090E072D8DE9882E00A
S11312B08BBB81E0C1DF8BB38BBB81E0BDDF8BB324
S11312C08E608BBB81E0B8DF8BB38BBB81E0B4DF76
S11312D08BB386608BBB81E0AFDF8BB38BBB81E0CC
S11312E0ABDFD89A81E0A8DFDC9AC8CF089580EC00
S11312F0ABCF089584E9A8CF089584EDA5CF0895D0
S1131300CF93C82F8BB39C2F92959F70892B8BBB47
S113131081E092DF8BB3CF70C82BCBBB81E08CDF35
S1131320CF910895CF92DF92EF92FF920F931F9384
S1131330CF93DF93CDB7DEB7C155D1090FB6F8947B
S1131340DEBF0FBECDBFFE01E45AFF4F4191519164
S11313509F0161E570E0CE0101960E947C15BE01FB
S11313606F5F7F4F82E694E00E940115892B09F498
S113137043C0BE016F5F7F4F82E694E00E940A156E
S113138077DF9E012F5F3F4F690100E010E00F2ED1
S1131390F4E1EF2EF12CF02D27C08A3051F4C8016E
S11313A0B7010E94AF12F701E81BF90B0E0F1F1FC4
S11313B003C0A6DF0F5F1F4FC801B7010E94AF1221
S11313C0892B91F4C801B7010E94AF1262307105F4
S11313D041F06330710539F06130710529F487DF1C
S11313E003C088DF01C089DFF60181916F01882382
S11313F019F0003511058CF2CF5ADF4F0FB6F8946F
S1131400DEBF0FBECDBFDF91CF911F910F91FF9033
S1131410EF90DF90CF90089564E370E081E090E076
S11314200C94D61208950C9488130895EBE9F0E017
S1131430908195FFFDCF80939C0008950F931F9397
S1131440CF93DF93082F162FD42FC22F8BE8EEDF14
S1131450112329F081E0011103C080E001C080E084
S1131460E5DF8D2FE3DF8C2FE1DFDF91CF911F913B
S11314700F9108950F931F93CF93DF93182F092F84
S1131480C62FD72F81E9D2DF802FD0DF812FCEDF87
S11314908D2FCCDF8C2FCADFDF91CF911F910F915D
S11314A00895AF92BF92CF92DF92EF92FF920F9383
S11314B01F93CF93DF93C82F7B016A01A22EB32E13
S11314C08CE8B4DF8C2FB2DF8E2DB0DF1E141F0426
S11314D074F4E6010A2D1B2DEC0CFD1C8991A6DF8A
S11314E0F80181918F01A2DFCE15DF05B9F7DF91F5
S11314F0CF911F910F91FF90EF90DF90CF90BF900D
S1131500AF900895CF93C82F8DE890DF8C2F8EDF96
S1131510CF910895EBE9F0E080818823ECF7809186
S11315209C000895EF92FF920F931F93CF93DF9344
S11315307C0180919B00882344F4ACE9B0E0EBE9A2
S1131540F0E08C9180818823E4F38EE86FDF86E0FD
S11315506DDFE70187010C5C1F4FDCDF8993C01747
S1131560D107D9F7F701848590E0982F882725853E
S1131570820F911D95878487868590E0982F882710
S11315802785820F911D97878687818990E0982F00
S113159088272289820F911D928B818B838990E009
S11315A0982F88272489820F911D948B838B868999
S11315B090E0982F88272789820F911D978B868B1F
S11315C0808D90E0982F8827218D820F911D918F17
S11315D0808F828D90E0982F8827238D820F911D14
S11315E0938F828F848D90E0982F8827258D820F8A
S11315F0911D958F848F868D90E0982F8827278D55
S1131600820F911D978F868F80A190E0982F882755
S113161021A1820F911D91A380A382A190E0982F14
S1131620882723A1820F911D93A382A382A590E012
S113163021A530E0322F2227280F391F36A325A3F6
S113164020A930E0322F2227820F931F95A784A769
S113165082A990E0982F882723A9820F911D97A72C
S113166086A784A990E0982F882725A9820F911D29
S113167091AB80AB86A990E0982F882727A9820F89
S1131680911D93AB82AB83E290E00E94C801DF918D
S1131690CF911F910F91FF90EF9008950F931F9397
S11316A0CF93DF93EC0109E910E080E1F801808336
S11316B088E180939A0086E080939D0080E8B6DEFE
S11316C081E8B4DE88E0B2DE84E690E00E94C801DE
S11316D081E2F801808384E8A9DE2FEF47E061E02E
S11316E081E0ACDECE011EDFCE011CDFDF91CF91A5
S11316F01F910F9108955058BB27AA270ED04DC1B2
S11317003ED130F043D120F031F49F3F11F41EF468
S113171033C10EF4E095E7FB29C1E92F4FD180F3E3
S1131720BA17620773078407950718F071F49EF5DA
S113173067C10EF4E0950B2EBA2FA02D0B01B90151
S113174090010C01CA01A0011124FF27591B99F033
S1131750593F50F4503E68F11A16F040A22F232F3F
S1131760342F4427585FF3CF469537952795A7958F
S1131770F0405395C9F77EF41F16BA0B620B730B36
S1131780840BBAF09150A1F0FF0FBB1F661F771FA7
S1131790881FC2F70EC0BA0F621F731F841F48F45C
S11317A0879577956795B795F7959E3F08F0B3CFE2
S11317B09395880F08F09927EE0F979587950895CC
S11317C00CD0EBC0E3D040F0DAD030F021F45F3F2E
S11317D019F0CCC0511115C1CFC0F0D098F39923A2
S11317E0C9F35523B1F3951B550BBB27AA276217E1
S11317F07307840738F09F5F5F4F220F331F441F26
S1131800AA1FA9F333D00E2E3AF0E0E830D091505D
S11318105040E695001CCAF729D0FE2F27D0660F4A
S1131820771F881FBB1F261737074807AB07B0E889
S113183009F0BB0B802DBF01FF2793585F4F2AF09F
S11318409E3F510568F092C0DCC05F3FECF3983EC8
S1131850DCF3869577956795B795F7959F5FC9F7FC
S1131860880F911D9695879597F90895E1E0660F85
S1131870771F881FBB1F621773078407BA0720F0FE
S1131880621B730B840BBA0BEE1F88F7E095089567
S113189004D06894B111B5C0089598D088F09F57CA
S11318A090F0B92F9927B751A0F0D1F0660F771FA8
S11318B0881F991F1AF0BA95C9F712C0B13081F088
S11318C09FD0B1E008959CC0672F782F8827B85F18
S11318D039F0B93FCCF3869577956795B395D9F7E9
S11318E03EF490958095709561957F4F8F4F9F4FF3
S11318F00895E89409C097FB3EF4909580957095FF
S113190061957F4F8F4F9F4F9923A9F0F92F96E947
S1131910BB279395F695879577956795B795F111BC
S1131920F8CFFAF4BB0F11F460FF1BC06F5F7F4F59
S11319308F4F9F4F16C0882311F096E911C077236B
S113194021F09EE8872F762F05C0662371F096E874
S1131950862F70E060E02AF09A95660F771F881F43
S1131960DAF7880F9695879597F9089597F99F6701
S113197080E870E060E008959FEF80EC0895002413
S11319800A941616170618060906089500240A94E0
S113199012161306140605060895092E0394000C66
S11319A011F4882352F0BB0F40F4BF2B11F460FFF5
S11319B004C06F5F7F4F8F4F9F4F089557FD90581E
S11319C0440F551F59F05F3F71F04795880F97FBFF
S11319D0991F61F09F3F79F08795089512161306B9
S11319E01406551FF2CF4695F1DF08C016161706E8
S11319F01806991FF1CF869571056105089408951D
S1131A00E894BB2766277727CB0197F908950BD075
S1131A10C4CFB5DF28F0BADF18F0952309F0A6CFBC
S1131A20ABCF1124EECFCADFA0F3959FD1F3950F6E
S1131A3050E0551F629FF001729FBB27F00DB11D4E
S1131A40639FAA27F00DB11DAA1F649F6627B00DDE
S1131A50A11D661F829F2227B00DA11D621F739FC7
S1131A60B00DA11D621F839FA00D611D221F749FD5
S1131A703327A00D611D231F849F600D211D822F1C
S1131A80762F6A2F11249F5750408AF0E1F0882363
S1131A904AF0EE0FFF1FBB1F661F771F881F915070
S1131AA05040A9F79E3F510570F060CFAACF5F3F29
S1131AB0ECF3983EDCF3869577956795B795F795A3
S1131AC0E7959F5FC1F7FE2B880F911D969587952B
S1131AD097F90895FA01EE0FFF1F3096210531059D
S1131AE099F16115710561F48038BFE39B0749F1F1
S1131AF068949038810561F08038BFEF9B0741F00E
S1131B00992342F5FF3FE1053105210511F1E894E0
S1131B100894E795D901AA2329F4AB2FBE2FF85FC7
S1131B20D0F310C0FF5F70F4A695E0F7F73950F0DA
S1131B3019F0FF3A38F49F779F930CD00F9007FC6D
S1131B40905808953EF018CF60E070E080E89FE37D
S1131B5008954FE79F775F934F933F932F93F7D069
S1131B602F913F914F915F9152DF25C0DF93D92F81
S1131B7085D0E695D7952AED3FE049E45FE3B33A93
S1131B806207730784079507D7952AF0A2EA49EC00
S1131B909068C3DD02DFECE8F0E05ED0DD0F0BF00F
S1131BA094D0DD0F0BF49058DF91089519F40EF0E2
S1131BB0DDCE26CFE1CE0ADFC8F39638C0F707F8AA
S1131BC00F92E8942BE33AEA48EB5FE72EDF0F929B
S1131BD00F920F924DB75EB70F92F9D0EFEAF0E093
S1131BE016D04F915F91EF91FF91E595EE1FFF1F86
S1131BF049F0FE57E0684427EE0F441FFA95E1F7D9
S1131C004195550B6BD00F9007FE5FC00895DF938D
S1131C10CF931F930F93FF92EF92DF927B018C017E
S1131C20689405C0DA2EEF01FEDEFE01E894A5916A
S1131C302591359145915591AEF3EF016EDDFE018D
S1131C409701A801DA9479F7DF90EF90FF900F9154
S1131C501F91CF91DF9108959F938F937F936F93FB
S1131C60FF93EF939B01AC01D2DEEF91FF91CFDFA5
S1131C702F913F914F915F91CACE7ECEA7DEE8F3BC
S1131C80E894E0E0BB279F57F0F02AED3FE049ECF1
S1131C9006C0EE0FBB0F661F771F881F28F0B23AED
S1131CA062077307840728F0B25A620B730B840B24
S1131CB0E3959A9572F7803830F49A95BB0F661FB6
S1131CC0771F881FD2F79048B7C09B01AC0160E032
S1131CD070E080E89FE374CD49CEACC077DEE8F3D2
S1131CE09923D9F3940F511DBBF39150504094F0B4
S1131CF059F0882332F0660F771F881F91505040A7
S1131D00C1F79E3F510544F7880F911D969587951D
S1131D1097F908955F3FACF0983E9CF0BB278695F9
S1131D2077956795B79508F4B1609395C1F7BB0FA4
S1131D3058F711F460FFE8CF6F5F7F4F8F4F9F4FCD
S1131D40E3CF5FCE0EF076C017CE68940FCE3EDEA2
S1131D50C8F39923D1F3C6F3DF93CF931F930F9363
S1131D60FF92C92FDD2788232AF02197660F771F5A
S1131D70881FDAF720E030E040E85FEB9FE3883922
S1131D8020F0803E30F021968F77B6DCE7EDF0E06E
S1131D9003C0B2DCE4E0F1E03ADF8B01BE01EC0108
S1131DA0FB2E6F5771097595771F880B990BA3DD6F
S1131DB028E132E741E35FE336DEAF2D9801AE015F
S1131DC0FF900F911F91CF91DF91A7DCE6CDFA012F
S1131DD0DC01AA0FBB1F9B01AC01BF5728F42227CB
S1131DE03327442750781FC0B75188F4AB2F002401
S1131DF0469537952795011CA395D2F3002069F0E9
S1131E00220F331F441FB395DAF30DD074CC613025
S1131E107105A0E88A07B94630F49B01AC01662736
S1131E20772788279078309621F020833183428366
S1131E30538308959F3F31F0915020F4879577950F
S1131E406795B795880F911D9695879597F908958D
S1131E502F923F924F925F926F927F928F929F92B6
S1131E60AF92BF92CF92DF92EF92FF920F931F93A4
S1131E70CF93DF93CDB7DEB763970FB6F894DEBF89
S1131E800FBECDBF7C011B016A01FC0117821682C3
S1131E90838181FF49C3BE016F5F7F4F4B01F7010F
S1131EA09381F10193FD859193FF81911F01882313
S1131EB009F436C3853239F493FD859193FF8191FA
S1131EC01F01853231F4B70190E0B6D556016501A2
S1131ED0E6CF10E0512C20E02032A0F48B3269F0E0
S1131EE030F4803259F0833269F420612CC08D3291
S1131EF039F0803339F4216026C02260246023C085
S1131F00286021C027FD27C030ED380F3A3078F41F
S1131F1026FF06C0FAE01F9F300D1124132F13C0B3
S1131F206AE0569E300D1124532E20620CC08E326E
S1131F3021F426FDF5C2206406C08C3611F4206815
S1131F4002C0883641F4F10193FD859193FF81919C
S1131F501F018111C1CF9BEB980F933018F42061BE
S1131F60805E06C09BE9980F933008F09AC12F7EDB
S1131F7026FF16E02F73722E853621F4F22FF064BB
S1131F807F2E08C0863621F4622F6068762E02C048
S1131F901111115077FE07C01C3348F444244394B4
S1131FA0410E27E00BC0183030F4212F06C027E083
S1131FB04CE3442E03C027E017E0412C560174E0A3
S1131FC0A70EB11CF6016081718182819381042D79
S1131FD0A4012DD46C01098100FF02C003FF06C0D7
S1131FE071FC07C072FC08C0612C08C03DE2632E7E
S1131FF005C02BE2622E02C090E2692E802F8C7005
S113200081F1662011F084E001C083E0851510F0B1
S1132010512C0AC0581A73FC07C0B70180E290E043
S11320200BD55A94D1F7F4CF662021F0B701862D51
S113203090E002D503FD03C006E311E002C002E311
S113204011E0F72DF0717F2EF8018491882309F4B3
S11320505EC271108052B70190E0EED40F5F1F4F43
S1132060F3CF77FE0FC04C0C04FF04C08A81813388
S113207009F44A94141474F5F8E0F41578F588E03A
S1132080482E2CC076FC2AC0812F90E08C159D052B
S11320909CF06CEFC6166FEFD60674F0772D70685F
S11320A0772E0AC0E2E0F0E0EC0FFD1FE10FF11D16
S11320B08081803319F411501111F4CF77FE0EC0D2
S11320C044244394410E812F90E0C816D9062CF481
S11320D01C1904C04424439401C010E077FE07C0D7
S11320E01C141D043CF496012F5F3F4F05C025E0EE
S11320F030E002C021E030E0662011F02F5F3F4F56
S1132100112331F0412F50E04F5F5F4F240F351FF3
S1132110452D50E02417350714F4521A01C0512CF0
S1132120872D897041F4552031F0B70180E290E0A9
S113213083D45A94F8CF662021F0B701862D90E01D
S11321407BD473FC08C0552031F0B70180E390E0E4
S113215073D45A94F8CF77FE5DC09C2D8D2DD7FE95
S113216002C090E080E0692E782E40E050E0C60185
S1132170841991099D878C87960126193709280DA2
S1132180391D812F90E0EE27FF27E81BF90BFF870D
S1132190EE87FFEF6F167F0661F4B7018EE290E0E1
S11321A02B8B3A8B488B598B47D4598948893A8968
S11321B02B89C614D70454F06C857D856615770584
S11321C02CF4F901E40FF51F818101C080E371E073
S11321D0671A71084F5F5F4FEE85FF856E167F06A5
S11321E064F0B70190E02B8B3A8B488B598B24D445
S11321F02B893A8948895989CCCF6C147D0439F4E8
S11322009A81963318F4953311F404FF81E3B701EE
S113221090E045C08A81813309F00F7EB70190E0D8
S11322200BD4111105C074FE16C085E490E015C0EE
S1132230B7018EE290E000D482E066246394680ED5
S1132240F401E80FF11D8081B70190E0F5D311503E
S113225051F3862DF2CF85E690E0B701EDD3D7FC9C
S113226005C0C114D10439F404FF05C0D194C1944C
S1132270D1088DE201C08BE2B70190E0DDD380E3A9
S11322806AE0C616D1042CF08F5FFAE0CF1AD108A9
S1132290F7CFB70190E0D0D3B701C601C096CCD335
S11322A036C1833631F0833779F0833509F054C071
S11322B020C0560172E0A70EB11CF601808189830B
S11322C001E010E0640113C05601F2E0AF0EB11C4E
S11322D0F601C080D18026FF03C0612F70E002C0E8
S11322E06FEF7FEFC6012B8B9CD38C012B892F774B
S11322F014C05601F2E0AF0EB11CF601C080D180CB
S113230026FF03C0612F70E002C06FEF7FEFC601AC
S11323102B8B65D38C012B892068722E23FD18C06A
S1132320852D90E00817190798F4B70180E290E032
S113233083D35A94F5CFF60177FC859177FE81918A
S11323406F01B70190E078D351105A9401501109EC
S11323500115110581F7DBC0843611F0893649F582
S1132360560127FF09C0F4E0AF0EB11CF6016081ED
S11323707181828193810AC0F2E0AF0EB11CF60133
S113238060817181882777FD8095982F022F0F76C1
S113239097FF08C090958095709561957F4F8F4FFA
S11323A09F4F00682AE030E0A401DED3C82EC8188D
S11323B03DC0022F853721F40F7E2AE030E01DC096
S11323C0097F8F3691F018F4883559F0A9C0803709
S11323D019F0883711F0A4C0006104FF09C004603B
S11323E007C024FF08C0066006C028E030E005C02E
S11323F020E130E002C020E132E0560107FF09C0CD
S1132400F4E0AF0EB11CF601608171818281938189
S113241008C0F2E0AF0EB11CF6016081718180E06A
S113242090E0A401A1D3C82EC8180F7706FF0BC0F3
S1132430202F2E7FC11650F404FF0AC002FD08C0ED
S1132440202F2E7E05C0DC2C202F03C0DC2C01C0E5
S1132450D12E24FF0DC0FE01EC0DF11D80818033CF
S113246011F4297E09C022FF06C0D394D39404C07A
S1132470822F867809F0D39423FD12C020FF06C072
S11324801C2DD51418F4150D1D19D52CD51460F474
S1132490B70180E290E02B8BCFD2D3942B89F6CF77
S11324A0D51410F45D1801C0512C24FF11C0B701DC
S11324B080E390E02B8BC0D22B8922FF16C021FF32
S11324C003C088E590E002C088E790E0B7010CC043
S11324D0822F867851F021FD02C080E201C08BE298
S11324E027FD8DE2B70190E0A7D2C11630F4B70101
S11324F080E390E0A1D21150F8CFCA94F401EC0D1E
S1132500F11D8081B70190E097D2C110F6CF55201C
S113251009F4DDCCB70180E290E08ED25A94F7CF73
S1132520F7018681978102C08FEF9FEF63960FB604
S1132530F894DEBF0FBECDBFDF91CF911F910F91F5
S1132540FF90EF90DF90CF90BF90AF909F908F90CF
S11325507F906F905F904F903F902F90089597FBDE
S1132560072E16F4009406D077FD08D00BD007FC94
S113257005D03EF4909581959F4F0895709561958F
S11325807F4F0895AA1BBB1B51E107C0AA1FBB1FA5
S1132590A617B70710F0A61BB70B881F991F5A95EB
S11325A0A9F780959095BC01CD0108950F931F93D1
S11325B0CF93DF93869F8001879F100D969F100D08
S11325C01124C8010DD0EC01009721F0A80160E0AE
S11325D070E010D2CE01DF91CF911F910F91089539
S11325E0CF93DF938230910510F482E090E0E09184
S11325F0C30CF091C40C20E030E0A0E0B0E03097D0
S113260039F14081518148175907B8F048175907E3
S113261071F482819381109729F013969C938E9381
S113262012972CC09093C40C8093C30C27C021151F
S1132630310531F04217530718F0A901DB0101C03D
S1132640EF019A01BD01DF010280F381E02DD7CFB4
S113265021153105F9F0281B390B2430310580F49C
S11326608A819B816115710521F0FB01938382832B
S113267004C09093C40C8093C30CFE01329644C0F2
S1132680FE01E20FF31F81939193225031093983A4
S113269028833AC02091C10C3091C20C232B41F401
S11326A020910201309103013093C20C2093C10C9C
S11326B020910001309101012115310541F42DB71C
S11326C03EB74091040150910501241B350BE09164
S11326D0C10CF091C20CE217F307A0F42E1B3F0BC0
S11326E02817390778F0AC014E5F5F4F2417350780
S11326F048F04E0F5F1F5093C20C4093C10C81935E
S1132700919302C0E0E0F0E0CF01DF91CF91089512
S1132710CF93DF93009709F487C0FC0132971382AB
S11327201282C091C30CD091C40C209781F42081F3
S11327303181280F391F8091C10C9091C20C8217EE
S1132740930779F5F093C20CE093C10C6DC0DE01E0
S113275020E030E0AE17BF0750F412964D915C9123
S113276013979D014115510509F1DA01F3CFB383A4
S1132770A28340815181840F951F8A179B0771F4AE
S11327808D919C911197840F951F0296918380835C
S113279012968D919C911397938382832115310511
S11327A029F4F093C40CE093C30C3EC0D9011396F2
S11327B0FC93EE9312974D915D91A40FB51FEA1708
S11327C0FB0779F480819181840F951F0296D901CA
S11327D011969C938E938281938113969C938E93EE
S11327E01297E0E0F0E08A819B81009719F0FE01E6
S11327F0EC01F9CFCE01029628813981820F931F13
S11328002091C10C3091C20C2817390769F4309714
S113281029F41092C40C1092C30C02C013821282C9
S1132820D093C20CC093C10CDF91CF91089528308E
S113283008F027E03327DA01990F311D87FD9160F5
S113284000966105710539F432602E5F3D9330E3E3
S11328502A95E1F708959F3F30F0803871056105AE
S113286009F03C5F3C5F3D93913008F08068911D16
S1132870DF93CF931F930F93FF92EF92192F987FBB
S11328809695E92F96959695E90FFF27EC56FE4FFE
S113289099273327EE24FF24A701E7010590089424
S11328A0079428F4360FE71EF81E491F511D660FC2
S11328B0771F881F991F0694A1F70590079428F4A1
S11328C0E70EF81E491F561FC11D770F881F991F59
S11328D0661F0694A1F70590079428F4F80E491F83
S11328E0561FC71FD11D880F991F661F771F069497
S11328F0A1F70590079420F4490F561FC71FD81F4E
S1132900990F661F771F881F0694A9F78491109565
S1132910177041F0D695C79557954795F794E79466
S11329201A95C1F7EAE3F1E0689415901591359191
S11329306591959105907FE27395E118F10A430B37
S1132940560BC90BD009C0F7E10CF11E431F561FEB
S1132950C91FD01D7EF4703311F48A95E6CFE89434
S1132960015030F0080F0AF40027021708F4202F52
S11329702395022F7A3328F079E37D932A95E9F79A
S113298010C07D932A9589F6069497956795379597
S113299017951794E118F10A430B560BC90BD0098C
S11329A098F023957E9173957A3308F070E37C93C5
S11329B02013B8F77E9170617D9330F0839571E3B5
S11329C07D9370E32A95E1F71124EF90FF900F9126
S11329D01F91CF91DF91992787FD90950895FC0170
S11329E00590615070400110D8F7809590958E0F36
S11329F09F1F0895DC0101C06D9341505040E0F7E2
S1132A000895FB01DC018D91019080190110D9F327
S1132A10990B0895FB01DC0101900D920020E1F770
S1132A200895FC016150704001900110D8F7809521
S1132A3090958E0F9F1F08950F931F93CF93DF934D
S1132A40182F092FEB018B8181FD03C08FEF9FEFBE
S1132A5020C082FF10C04E815F812C813D814217CE
S1132A6053077CF4E881F9819F012F5F3F4F39833D
S1132A702883108306C0E885F985812F0995892B61
S1132A8029F72E813F812F5F3F4F3F832E83812F74
S1132A90902FDF91CF911F910F9108950F931F9362
S1132AA0CF93DF93CDB7DEB72E970FB6F894DEBF82
S1132AB00FBECDBF0D891E8986E08C831A830983DE
S1132AC08FEF9FE79E838D83AE01475E5F4F6F89D3
S1132AD0788DCE010196BCD9EF81F885E00FF11F06
S1132AE010822E960FB6F894DEBF0FBECDBFDF91D5
S1132AF0CF911F910F9108950F931F93CF93DF935D
S1132B00CDB7DEB72E970FB6F894DEBF0FBECDBF9C
S1132B108C01CA0146E04C831A83098377FF02C003
S1132B2060E070E8615071097E836D83A901BC0186
S1132B30CE0101968DD94D815E8157FD0AC02F814A
S1132B403885421753070CF49A01F801E20FF31F7A
S1132B5010822E960FB6F894DEBF0FBECDBFDF9164
S1132B60CF911F910F910895FA01AA27283051F1AE
S1132B70203181F1E8946F936E7F6E5F7F4F8F4FAA
S1132B809F4FAF4FB1E03ED0B4E03CD0670F781F09
S1132B90891F9A1FA11D680F791F8A1F911DA11DEE
S1132BA06A0F711D811D911DA11D20D009F4689427
S1132BB03F912AE0269F11243019305D3193DEF6CF
S1132BC0CF010895462F4770405D4193B3E00FD085
S1132BD0C9F7F6CF462F4F70405D4A3318F0495D70
S1132BE031FD4052419302D0A9F7EACFB4E0A69553
S1132BF09795879577956795BA95C9F70097610575
S1132C00710508959B01AC010A2E069457954795CA
S1132C1037952795BA95C9F7620F731F841F951FBF
S10B2C20A01D0895F894FFCFF4
S1132C280000C50C20000A0D4C6566742042756DC1
S1132C38706572204869740A0D00000000000000E5
S1132C48000000000A0D52696768742042756D70AF
S1132C586572204869740A0D000000000000000035
S1132C6800000A0D46726F6E7420576865656C2003
S1132C7844726F700A0D000000000000000000009C
S1132C880A0D46726F6E74204C656674204F420AB2
S1132C980D000000000000000000000000000A0D04
S1132CA846726F6E74205269676874204F420A0D29
S1132CB80000000000000000000000000A0D4C6540
S1132CC866742053696465204F420A0D00000000B1
S1132CD8000000000000000000000A0D5269676847
S1132CE8742053696465204F420A0D0000000000F7
S1132CF800000000000000000A0D46726F6E744C5C
S1132D08656674204372617465720A0D00000000E0
S1132D180000000000000A0D46726F6E7452696765
S1132D286874204372617465720A0D000000000023
S1132D38000000000A0D4C65667420536964652020
S1132D484372617465720A0D0000000000000000FF
S1132D5800000A0D5269676874205369646520434A
S1132D6872617465720A0D00000000000000000022
S1132D7839323539323540542040542053656E6415
S1132D88696E672053776565700A0D0000436F6E9E
S1132D986669726D20706C61793F20592F4E0A0D57
S1132DA800000A0D4D6F76696E672035636D0A0D54
S1132DB80000000000000A0D4D6F76696E6720312F
S1132DC835636D0A0D00000000000A0D4D6F766929
S1132DD86E67203235636D0A0D00000000000A0D8D
S1132DE84D6F76696E67203530636D0A0D000000FB
S1132DF800000A0D4D6F76696E6720313030636DBF
S1132E080A0D000000000A0D526F746174652031C8
S1132E18306465670A0D000000000A0D526F746182
S1132E2874652032356465670A0D000000000A0DD8
S1132E38526F746174652034356465670A0D000047
S1132E4800000A0D526F7461746520393064656737
S1132E580A0D000000000A0D526F74617465203178
S1132E6838306465670A0D0000000A0D526F7461FA
S1132E787465202D31306465670A0D0000000A0D61
S1132E88526F74617465202D32356465670A0D00CC
S1132E9800000A0D526F74617465202D3435646521
S1132EA8670A0D0000000A0D526F74617465202DC5
S1132EB839306465670A0D0000000A0D526F7461A9
S1132EC87465202D3138306465670A0D00000A0DD9
S1132ED8537765657020436F6D706C6574650A0D72
S1132EE800000A0D506C6179696E67204175646948
S1132EF86F0A0D0000000A0D25640A0D0044656779
S1132F0872656573202020004952204469737461F6
S1132F186E63652028636D2920202000536F6E613D
S1132F28722044697374616E63652028636D290097
S1132F3825642020202020202025342E32662020BD
S1132F482020202020202020202020202025342E4E
S1132F5832640A0D0077696474683A2025662C2067
S1132F68616E676C653A2025642C2064697374610A
S1112F786E63653A2025640A0D00256300008F
S9030000FC
